{
  "_format": "hh-sol-artifact-1",
  "contractName": "LensStreaming",
  "sourceName": "contracts/LensCrowdStreaming.sol",
  "abi": [
    {
      "inputs": [],
      "name": "Unauthorized",
      "type": "error"
    },
    {
      "inputs": [
        {
          "internalType": "address",
          "name": "",
          "type": "address"
        }
      ],
      "name": "accountList",
      "outputs": [
        {
          "internalType": "bool",
          "name": "",
          "type": "bool"
        }
      ],
      "stateMutability": "view",
      "type": "function"
    },
    {
      "inputs": [
        {
          "internalType": "uint256",
          "name": "_id",
          "type": "uint256"
        },
        {
          "internalType": "contract ISuperToken",
          "name": "token",
          "type": "address"
        },
        {
          "internalType": "address",
          "name": "receiver",
          "type": "address"
        },
        {
          "internalType": "int96",
          "name": "flowRate",
          "type": "int96"
        }
      ],
      "name": "createFlowFromContract",
      "outputs": [],
      "stateMutability": "nonpayable",
      "type": "function"
    },
    {
      "inputs": [
        {
          "internalType": "uint256",
          "name": "_id",
          "type": "uint256"
        },
        {
          "internalType": "contract ISuperToken",
          "name": "token",
          "type": "address"
        },
        {
          "internalType": "int96",
          "name": "flowRate",
          "type": "int96"
        },
        {
          "internalType": "uint256",
          "name": "montylyRate",
          "type": "uint256"
        }
      ],
      "name": "createFlowIntoContract",
      "outputs": [],
      "stateMutability": "payable",
      "type": "function"
    },
    {
      "inputs": [
        {
          "internalType": "address",
          "name": "_owner",
          "type": "address"
        },
        {
          "internalType": "address",
          "name": "_recipient",
          "type": "address"
        },
        {
          "internalType": "string",
          "name": "_title",
          "type": "string"
        },
        {
          "internalType": "string",
          "name": "_description",
          "type": "string"
        },
        {
          "internalType": "uint256",
          "name": "_target",
          "type": "uint256"
        },
        {
          "internalType": "uint256",
          "name": "_deadline",
          "type": "uint256"
        },
        {
          "internalType": "string",
          "name": "_image",
          "type": "string"
        }
      ],
      "name": "createProject",
      "outputs": [
        {
          "internalType": "uint256",
          "name": "",
          "type": "uint256"
        }
      ],
      "stateMutability": "nonpayable",
      "type": "function"
    },
    {
      "inputs": [
        {
          "internalType": "contract ISuperToken",
          "name": "token",
          "type": "address"
        },
        {
          "internalType": "address",
          "name": "receiver",
          "type": "address"
        }
      ],
      "name": "deleteFlowFromContract",
      "outputs": [],
      "stateMutability": "nonpayable",
      "type": "function"
    },
    {
      "inputs": [
        {
          "internalType": "contract ISuperToken",
          "name": "token",
          "type": "address"
        }
      ],
      "name": "deleteFlowIntoContract",
      "outputs": [],
      "stateMutability": "nonpayable",
      "type": "function"
    },
    {
      "inputs": [
        {
          "internalType": "uint256",
          "name": "_id",
          "type": "uint256"
        }
      ],
      "name": "getDonators",
      "outputs": [
        {
          "internalType": "address[]",
          "name": "",
          "type": "address[]"
        },
        {
          "internalType": "uint256[]",
          "name": "",
          "type": "uint256[]"
        }
      ],
      "stateMutability": "view",
      "type": "function"
    },
    {
      "inputs": [],
      "name": "getProjects",
      "outputs": [
        {
          "components": [
            {
              "internalType": "address",
              "name": "owner",
              "type": "address"
            },
            {
              "internalType": "address",
              "name": "recipient",
              "type": "address"
            },
            {
              "internalType": "string",
              "name": "title",
              "type": "string"
            },
            {
              "internalType": "string",
              "name": "description",
              "type": "string"
            },
            {
              "internalType": "uint256",
              "name": "target",
              "type": "uint256"
            },
            {
              "internalType": "uint256",
              "name": "deadline",
              "type": "uint256"
            },
            {
              "internalType": "uint256",
              "name": "amountCollected",
              "type": "uint256"
            },
            {
              "internalType": "uint256",
              "name": "amountWithdrawn",
              "type": "uint256"
            },
            {
              "internalType": "string",
              "name": "image",
              "type": "string"
            },
            {
              "internalType": "address[]",
              "name": "donators",
              "type": "address[]"
            },
            {
              "internalType": "uint256[]",
              "name": "donations",
              "type": "uint256[]"
            }
          ],
          "internalType": "struct LensStreaming.Project[]",
          "name": "",
          "type": "tuple[]"
        }
      ],
      "stateMutability": "view",
      "type": "function"
    },
    {
      "inputs": [],
      "name": "numberOfProjects",
      "outputs": [
        {
          "internalType": "uint256",
          "name": "",
          "type": "uint256"
        }
      ],
      "stateMutability": "view",
      "type": "function"
    },
    {
      "inputs": [
        {
          "internalType": "uint256",
          "name": "",
          "type": "uint256"
        }
      ],
      "name": "projects",
      "outputs": [
        {
          "internalType": "address",
          "name": "owner",
          "type": "address"
        },
        {
          "internalType": "address",
          "name": "recipient",
          "type": "address"
        },
        {
          "internalType": "string",
          "name": "title",
          "type": "string"
        },
        {
          "internalType": "string",
          "name": "description",
          "type": "string"
        },
        {
          "internalType": "uint256",
          "name": "target",
          "type": "uint256"
        },
        {
          "internalType": "uint256",
          "name": "deadline",
          "type": "uint256"
        },
        {
          "internalType": "uint256",
          "name": "amountCollected",
          "type": "uint256"
        },
        {
          "internalType": "uint256",
          "name": "amountWithdrawn",
          "type": "uint256"
        },
        {
          "internalType": "string",
          "name": "image",
          "type": "string"
        }
      ],
      "stateMutability": "view",
      "type": "function"
    },
    {
      "inputs": [
        {
          "internalType": "contract ISuperToken",
          "name": "token",
          "type": "address"
        },
        {
          "internalType": "uint256",
          "name": "amount",
          "type": "uint256"
        }
      ],
      "name": "sendLumpSumToContract",
      "outputs": [],
      "stateMutability": "nonpayable",
      "type": "function"
    },
    {
      "inputs": [
        {
          "internalType": "contract ISuperToken",
          "name": "token",
          "type": "address"
        },
        {
          "internalType": "address",
          "name": "receiver",
          "type": "address"
        },
        {
          "internalType": "int96",
          "name": "flowRate",
          "type": "int96"
        }
      ],
      "name": "updateFlowFromContract",
      "outputs": [],
      "stateMutability": "nonpayable",
      "type": "function"
    },
    {
      "inputs": [
        {
          "internalType": "uint256",
          "name": "_id",
          "type": "uint256"
        },
        {
          "internalType": "uint256",
          "name": "amount",
          "type": "uint256"
        }
      ],
      "name": "withdrawFunds",
      "outputs": [],
      "stateMutability": "nonpayable",
      "type": "function"
    }
  ],
  "bytecode": "0x6080604052600060025534801561001557600080fd5b50611d3b806100256000396000f3fe6080604052600436106100c25760003560e01c80636715e19f1161007f578063db5e4c7f11610059578063db5e4c7f14610228578063dcc601281461024c578063e52531051461026e578063f50d44401461028e57600080fd5b80636715e19f146101a8578063c2f7c654146101c8578063d3a07fcd146101e857600080fd5b8063097e69ef146100c75780630fa91fa9146100e9578063107046bd1461012057806326ff92e4146101555780632d0dc7ed1461017557806343a4825214610195575b600080fd5b3480156100d357600080fd5b506100e76100e2366004611339565b6102ae565b005b3480156100f557600080fd5b50610109610104366004611380565b6102c8565b604051610117929190611399565b60405180910390f35b34801561012c57600080fd5b5061014061013b366004611380565b610399565b6040516101179998979695949392919061146d565b34801561016157600080fd5b506100e76101703660046114eb565b610587565b34801561018157600080fd5b506100e7610190366004611517565b610603565b6100e76101a3366004611568565b61069b565b3480156101b457600080fd5b506100e76101c33660046115ae565b610726565b3480156101d457600080fd5b506100e76101e33660046115d2565b61073e565b3480156101f457600080fd5b506102186102033660046115ae565b60006020819052908152604090205460ff1681565b6040519015158152602001610117565b34801561023457600080fd5b5061023e60025481565b604051908152602001610117565b34801561025857600080fd5b50610261610752565b604051610117919061167f565b34801561027a57600080fd5b506100e76102893660046117af565b610b30565b34801561029a57600080fd5b5061023e6102a9366004611896565b610c60565b6102c26001600160a01b0384168383610d7f565b50505050565b60008181526001602090815260409182902060098101805484518185028101850190955280855260609485949293600a01929091849183018282801561033757602002820191906000526020600020905b81546001600160a01b03168152600190910190602001808311610319575b505050505091508080548060200260200160405190810160405280929190818152602001828054801561038957602002820191906000526020600020905b815481526020019060010190808311610375575b5050505050905091509150915091565b60016020819052600091825260409091208054918101546002820180546001600160a01b039485169490921692916103d090611957565b80601f01602080910402602001604051908101604052809291908181526020018280546103fc90611957565b80156104495780601f1061041e57610100808354040283529160200191610449565b820191906000526020600020905b81548152906001019060200180831161042c57829003601f168201915b50505050509080600301805461045e90611957565b80601f016020809104026020016040519081016040528092919081815260200182805461048a90611957565b80156104d75780601f106104ac576101008083540402835291602001916104d7565b820191906000526020600020905b8154815290600101906020018083116104ba57829003601f168201915b50505050509080600401549080600501549080600601549080600701549080600801805461050490611957565b80601f016020809104026020016040519081016040528092919081815260200182805461053090611957565b801561057d5780601f106105525761010080835404028352916020019161057d565b820191906000526020600020905b81548152906001019060200180831161056057829003601f168201915b5050505050905089565b6040516323b872dd60e01b8152336004820152306024820152604481018290526001600160a01b038316906323b872dd906064016020604051808303816000875af11580156105da573d6000803e3d6000fd5b505050506040513d601f19601f820116820180604052508101906105fe919061198b565b505050565b600084815260016020819052604090912001546001600160a01b031633146106465760405162461bcd60e51b815260040161063d906119ad565b60405180910390fd5b600084815260016020819052604090912001546001600160a01b03163314610680576040516282b42960e81b815260040160405180910390fd5b6106946001600160a01b0384168383610da6565b5050505050565b6000848152600160208181526040832060098101805480850182559085528285200180546001600160a01b03191633908117909155600a82018054948501815585529184209092018490558392906106ff906001600160a01b038816903088610dc5565b9050801561071d578282600601546107179190611a08565b60068301555b50505050505050565b61073a6001600160a01b0382163330610def565b5050565b6105fe6001600160a01b0383163083610def565b6060600060025467ffffffffffffffff811115610771576107716117d1565b60405190808252806020026020018201604052801561081157816020015b6107fe60405180610160016040528060006001600160a01b0316815260200160006001600160a01b031681526020016060815260200160608152602001600081526020016000815260200160008152602001600081526020016060815260200160608152602001606081525090565b81526020019060019003908161078f5790505b50905060005b600254811015610b2a5760008181526001602081815260409283902083516101608101855281546001600160a01b039081168252938201549093169183019190915260028101805491938492908401919061087190611957565b80601f016020809104026020016040519081016040528092919081815260200182805461089d90611957565b80156108ea5780601f106108bf576101008083540402835291602001916108ea565b820191906000526020600020905b8154815290600101906020018083116108cd57829003601f168201915b5050505050815260200160038201805461090390611957565b80601f016020809104026020016040519081016040528092919081815260200182805461092f90611957565b801561097c5780601f106109515761010080835404028352916020019161097c565b820191906000526020600020905b81548152906001019060200180831161095f57829003601f168201915b50505050508152602001600482015481526020016005820154815260200160068201548152602001600782015481526020016008820180546109bd90611957565b80601f01602080910402602001604051908101604052809291908181526020018280546109e990611957565b8015610a365780601f10610a0b57610100808354040283529160200191610a36565b820191906000526020600020905b815481529060010190602001808311610a1957829003601f168201915b5050505050815260200160098201805480602002602001604051908101604052809291908181526020018280548015610a9857602002820191906000526020600020905b81546001600160a01b03168152600190910190602001808311610a7a575b50505050508152602001600a8201805480602002602001604051908101604052809291908181526020018280548015610af057602002820191906000526020600020905b815481526020019060010190808311610adc575b505050505081525050838381518110610b0b57610b0b611a21565b6020026020010181905250508080610b2290611a37565b915050610817565b50919050565b600082815260016020819052604090912001546001600160a01b03163314610b6a5760405162461bcd60e51b815260040161063d906119ad565b600082815260016020819052604090912001546001600160a01b03163314610ba4576040516282b42960e81b815260040160405180910390fd5b60008281526001602052604090206007810154600690910154610bc79190611a50565b811115610c0d5760405162461bcd60e51b8152602060048201526014602482015273496e73756666696369656e742062616c616e636560601b604482015260640161063d565b60008281526001602052604081206007018054839290610c2e908490611a08565b9091555050604051339082156108fc029083906000818181858888f193505050501580156105fe573d6000803e3d6000fd5b600254600090815260016020526040812060058101544211610cd95760405162461bcd60e51b815260206004820152602c60248201527f54686520646561646c696e652073686f756c642062652061206461746520696e60448201526b103a343290333aba3ab9329760a11b606482015260840161063d565b80546001600160a01b03808b166001600160a01b0319928316178355600183018054918b169190921617905560028101610d138882611ab1565b5060038101610d228782611ab1565b506004810185905560058101849055600060068201819055600782015560088101610d4d8482611ab1565b5060028054906000610d5e83611a37565b91905055506001600254610d729190611a50565b9998505050505050505050565b60408051600080825260208201909252610d9e90859085908590610e0e565b949350505050565b60408051600080825260208201909252610d9e90859085908590610f3a565b60408051600080825260208201909252610de6908690869086908690610f88565b95945050505050565b60408051600080825260208201909252610d9e908590859085906110b7565b6000806000610e1c87611143565b91509150816001600160a01b03166339255d5b82836001600160a01b03166350209a628b8b8b600067ffffffffffffffff811115610e5c57610e5c6117d1565b6040519080825280601f01601f191660200182016040528015610e86576020820181803683370190505b50604051602401610e9a9493929190611b71565b60408051808303601f1901815291815260208201805160e094851b6001600160e01b03909116179052519185901b6001600160e01b0319168252610ee5939250908990600401611bb1565b6000604051808303816000875af1158015610f04573d6000803e3d6000fd5b505050506040513d6000823e601f3d908101601f19168201604052610f2c9190810190611be7565b506001979650505050505050565b6000806000610f4887611143565b91509150816001600160a01b03166339255d5b82836001600160a01b03166362fc305e8b8b8b600067ffffffffffffffff811115610e5c57610e5c6117d1565b6000806000610f9688611143565b91509150816001600160a01b03166339255d5b82836001600160a01b03166394229ecb8c8c8c8c600067ffffffffffffffff811115610fd757610fd76117d1565b6040519080825280601f01601f191660200182016040528015611001576020820181803683370190505b50604051602401611016959493929190611c55565b60408051808303601f1901815291815260208201805160e094851b6001600160e01b03909116179052519185901b6001600160e01b0319168252611061939250908990600401611bb1565b6000604051808303816000875af1158015611080573d6000803e3d6000fd5b505050506040513d6000823e601f3d908101601f191682016040526110a89190810190611be7565b50600198975050505050505050565b60008060006110c587611143565b91509150816001600160a01b03166339255d5b82836001600160a01b031663b4b333c68b8b8b600067ffffffffffffffff811115611105576111056117d1565b6040519080825280601f01601f19166020018201604052801561112f576020820181803683370190505b50604051602401610e9a9493929190611c9e565b7f65599bf746e17a00ea62e3610586992d88101b78eec3cf380706621fb97ea837547fb969d79d88acd02d04ed7ee7d43b949e7daf093d363abcfbbc43dfdfd1ce969a546001600160a01b0381166112d9576001600160a01b03821661120857826001600160a01b03166320bc44256040518163ffffffff1660e01b8152600401602060405180830381865afa1580156111e1573d6000803e3d6000fd5b505050506040513d601f19601f820116820180604052508101906112059190611cd2565b91505b604051635b69006f60e11b81527fa9214cc96615e0085d3bb077758db69497dc2dce3b2b1e97bc93c3d18d83efd360048201526001600160a01b0383169063b6d200de90602401602060405180830381865afa15801561126c573d6000803e3d6000fd5b505050506040513d601f19601f820116820180604052508101906112909190611cd2565b9050817f65599bf746e17a00ea62e3610586992d88101b78eec3cf380706621fb97ea83755807fb969d79d88acd02d04ed7ee7d43b949e7daf093d363abcfbbc43dfdfd1ce969a555b6001600160a01b0382166112ef576112ef611cef565b6001600160a01b03811661130557611305611cef565b915091565b6001600160a01b038116811461131f57600080fd5b50565b8035600b81900b811461133457600080fd5b919050565b60008060006060848603121561134e57600080fd5b83356113598161130a565b925060208401356113698161130a565b915061137760408501611322565b90509250925092565b60006020828403121561139257600080fd5b5035919050565b604080825283519082018190526000906020906060840190828701845b828110156113db5781516001600160a01b0316845292840192908401906001016113b6565b5050508381038285015284518082528583019183019060005b81811015611410578351835292840192918401916001016113f4565b5090979650505050505050565b60005b83811015611438578181015183820152602001611420565b50506000910152565b6000815180845261145981602086016020860161141d565b601f01601f19169290920160200192915050565b6001600160a01b038a81168252891660208201526101206040820181905260009061149a8382018b611441565b905082810360608401526114ae818a611441565b90508760808401528660a08401528560c08401528460e08401528281036101008401526114db8185611441565b9c9b505050505050505050505050565b600080604083850312156114fe57600080fd5b82356115098161130a565b946020939093013593505050565b6000806000806080858703121561152d57600080fd5b84359350602085013561153f8161130a565b9250604085013561154f8161130a565b915061155d60608601611322565b905092959194509250565b6000806000806080858703121561157e57600080fd5b8435935060208501356115908161130a565b925061159e60408601611322565b9396929550929360600135925050565b6000602082840312156115c057600080fd5b81356115cb8161130a565b9392505050565b600080604083850312156115e557600080fd5b82356115f08161130a565b915060208301356116008161130a565b809150509250929050565b600081518084526020808501945080840160005b838110156116445781516001600160a01b03168752958201959082019060010161161f565b509495945050505050565b600081518084526020808501945080840160005b8381101561164457815187529582019590820190600101611663565b60006020808301818452808551808352604092508286019150828160051b87010184880160005b838110156117a157888303603f19018552815180516001600160a01b03168452610160818901516001600160a01b038116868b0152508782015181898701526116f182870182611441565b9150506060808301518683038288015261170b8382611441565b6080858101519089015260a0808601519089015260c0808601519089015260e0808601519089015261010080860151898303828b0152919450925090506117528382611441565b92505050610120808301518683038288015261176e838261160b565b92505050610140808301519250858203818701525061178d818361164f565b9689019694505050908601906001016116a6565b509098975050505050505050565b600080604083850312156117c257600080fd5b50508035926020909101359150565b634e487b7160e01b600052604160045260246000fd5b604051601f8201601f1916810167ffffffffffffffff81118282101715611810576118106117d1565b604052919050565b600067ffffffffffffffff821115611832576118326117d1565b50601f01601f191660200190565b600082601f83011261185157600080fd5b813561186461185f82611818565b6117e7565b81815284602083860101111561187957600080fd5b816020850160208301376000918101602001919091529392505050565b600080600080600080600060e0888a0312156118b157600080fd5b87356118bc8161130a565b965060208801356118cc8161130a565b9550604088013567ffffffffffffffff808211156118e957600080fd5b6118f58b838c01611840565b965060608a013591508082111561190b57600080fd5b6119178b838c01611840565b955060808a0135945060a08a0135935060c08a013591508082111561193b57600080fd5b506119488a828b01611840565b91505092959891949750929550565b600181811c9082168061196b57607f821691505b602082108103610b2a57634e487b7160e01b600052602260045260246000fd5b60006020828403121561199d57600080fd5b815180151581146115cb57600080fd5b60208082526025908201527f4f6e6c792074686520726563697069656e742063616e2077697468647261772060408201526466756e647360d81b606082015260800190565b634e487b7160e01b600052601160045260246000fd5b80820180821115611a1b57611a1b6119f2565b92915050565b634e487b7160e01b600052603260045260246000fd5b600060018201611a4957611a496119f2565b5060010190565b81810381811115611a1b57611a1b6119f2565b601f8211156105fe57600081815260208120601f850160051c81016020861015611a8a5750805b601f850160051c820191505b81811015611aa957828155600101611a96565b505050505050565b815167ffffffffffffffff811115611acb57611acb6117d1565b611adf81611ad98454611957565b84611a63565b602080601f831160018114611b145760008415611afc5750858301515b600019600386901b1c1916600185901b178555611aa9565b600085815260208120601f198616915b82811015611b4357888601518255948401946001909101908401611b24565b5085821015611b615787850151600019600388901b60f8161c191681555b5050505050600190811b01905550565b6001600160a01b03858116825284166020820152600b83900b6040820152608060608201819052600090611ba790830184611441565b9695505050505050565b6001600160a01b0384168152606060208201819052600090611bd590830185611441565b8281036040840152611ba78185611441565b600060208284031215611bf957600080fd5b815167ffffffffffffffff811115611c1057600080fd5b8201601f81018413611c2157600080fd5b8051611c2f61185f82611818565b818152856020838501011115611c4457600080fd5b610de682602083016020860161141d565b6001600160a01b038681168252858116602083015284166040820152600b83900b606082015260a060808201819052600090611c9390830184611441565b979650505050505050565b6001600160a01b038581168252848116602083015283166040820152608060608201819052600090611ba790830184611441565b600060208284031215611ce457600080fd5b81516115cb8161130a565b634e487b7160e01b600052600160045260246000fdfea264697066735822122099dfb20ad63477157e144663de265c399be6dd174880455831cf6dd5ac07d75964736f6c63430008110033",
  "linkReferences": {},
  "deployedLinkReferences": {}
}